{
  "address": "0xD69a92640CBBc2535233A37c475a8a2d68384058",
  "abi": [
    {
      "constant": true,
      "inputs": [],
      "name": "vestingCompletePeriod",
      "outputs": [
        {
          "name": "",
          "type": "uint64"
        }
      ],
      "payable": false,
      "stateMutability": "view",
      "type": "function"
    },
    {
      "constant": true,
      "inputs": [],
      "name": "hasInitialized",
      "outputs": [
        {
          "name": "",
          "type": "bool"
        }
      ],
      "payable": false,
      "stateMutability": "view",
      "type": "function"
    },
    {
      "constant": true,
      "inputs": [],
      "name": "PPM",
      "outputs": [
        {
          "name": "",
          "type": "uint256"
        }
      ],
      "payable": false,
      "stateMutability": "view",
      "type": "function"
    },
    {
      "constant": true,
      "inputs": [],
      "name": "supplyOfferedPct",
      "outputs": [
        {
          "name": "",
          "type": "uint256"
        }
      ],
      "payable": false,
      "stateMutability": "view",
      "type": "function"
    },
    {
      "constant": true,
      "inputs": [],
      "name": "vestingCliffPeriod",
      "outputs": [
        {
          "name": "",
          "type": "uint64"
        }
      ],
      "payable": false,
      "stateMutability": "view",
      "type": "function"
    },
    {
      "constant": true,
      "inputs": [
        {
          "name": "_script",
          "type": "bytes"
        }
      ],
      "name": "getEVMScriptExecutor",
      "outputs": [
        {
          "name": "",
          "type": "address"
        }
      ],
      "payable": false,
      "stateMutability": "view",
      "type": "function"
    },
    {
      "constant": true,
      "inputs": [],
      "name": "tokenManager",
      "outputs": [
        {
          "name": "",
          "type": "address"
        }
      ],
      "payable": false,
      "stateMutability": "view",
      "type": "function"
    },
    {
      "constant": true,
      "inputs": [],
      "name": "getRecoveryVault",
      "outputs": [
        {
          "name": "",
          "type": "address"
        }
      ],
      "payable": false,
      "stateMutability": "view",
      "type": "function"
    },
    {
      "constant": true,
      "inputs": [],
      "name": "beneficiary",
      "outputs": [
        {
          "name": "",
          "type": "address"
        }
      ],
      "payable": false,
      "stateMutability": "view",
      "type": "function"
    },
    {
      "constant": true,
      "inputs": [],
      "name": "exchangeRate",
      "outputs": [
        {
          "name": "",
          "type": "uint256"
        }
      ],
      "payable": false,
      "stateMutability": "view",
      "type": "function"
    },
    {
      "constant": true,
      "inputs": [],
      "name": "fundingForBeneficiaryPct",
      "outputs": [
        {
          "name": "",
          "type": "uint256"
        }
      ],
      "payable": false,
      "stateMutability": "view",
      "type": "function"
    },
    {
      "constant": true,
      "inputs": [],
      "name": "goal",
      "outputs": [
        {
          "name": "",
          "type": "uint256"
        }
      ],
      "payable": false,
      "stateMutability": "view",
      "type": "function"
    },
    {
      "constant": false,
      "inputs": [
        {
          "name": "_contributor",
          "type": "address"
        },
        {
          "name": "_vestedPurchaseId",
          "type": "uint256"
        }
      ],
      "name": "refund",
      "outputs": [],
      "payable": false,
      "stateMutability": "nonpayable",
      "type": "function"
    },
    {
      "constant": false,
      "inputs": [],
      "name": "close",
      "outputs": [],
      "payable": false,
      "stateMutability": "nonpayable",
      "type": "function"
    },
    {
      "constant": true,
      "inputs": [],
      "name": "contributionToken",
      "outputs": [
        {
          "name": "",
          "type": "address"
        }
      ],
      "payable": false,
      "stateMutability": "view",
      "type": "function"
    },
    {
      "constant": true,
      "inputs": [
        {
          "name": "",
          "type": "address"
        },
        {
          "name": "",
          "type": "uint256"
        }
      ],
      "name": "contributions",
      "outputs": [
        {
          "name": "",
          "type": "uint256"
        }
      ],
      "payable": false,
      "stateMutability": "view",
      "type": "function"
    },
    {
      "constant": true,
      "inputs": [],
      "name": "OPEN_ROLE",
      "outputs": [
        {
          "name": "",
          "type": "bytes32"
        }
      ],
      "payable": false,
      "stateMutability": "view",
      "type": "function"
    },
    {
      "constant": true,
      "inputs": [
        {
          "name": "token",
          "type": "address"
        }
      ],
      "name": "allowRecoverability",
      "outputs": [
        {
          "name": "",
          "type": "bool"
        }
      ],
      "payable": false,
      "stateMutability": "view",
      "type": "function"
    },
    {
      "constant": true,
      "inputs": [],
      "name": "appId",
      "outputs": [
        {
          "name": "",
          "type": "bytes32"
        }
      ],
      "payable": false,
      "stateMutability": "view",
      "type": "function"
    },
    {
      "constant": false,
      "inputs": [
        {
          "name": "_contributor",
          "type": "address"
        },
        {
          "name": "_value",
          "type": "uint256"
        }
      ],
      "name": "contribute",
      "outputs": [],
      "payable": true,
      "stateMutability": "payable",
      "type": "function"
    },
    {
      "constant": true,
      "inputs": [],
      "name": "getInitializationBlock",
      "outputs": [
        {
          "name": "",
          "type": "uint256"
        }
      ],
      "payable": false,
      "stateMutability": "view",
      "type": "function"
    },
    {
      "constant": true,
      "inputs": [
        {
          "name": "_value",
          "type": "uint256"
        }
      ],
      "name": "contributionToTokens",
      "outputs": [
        {
          "name": "",
          "type": "uint256"
        }
      ],
      "payable": false,
      "stateMutability": "view",
      "type": "function"
    },
    {
      "constant": false,
      "inputs": [
        {
          "name": "_token",
          "type": "address"
        }
      ],
      "name": "transferToVault",
      "outputs": [],
      "payable": false,
      "stateMutability": "nonpayable",
      "type": "function"
    },
    {
      "constant": true,
      "inputs": [
        {
          "name": "_sender",
          "type": "address"
        },
        {
          "name": "_role",
          "type": "bytes32"
        },
        {
          "name": "_params",
          "type": "uint256[]"
        }
      ],
      "name": "canPerform",
      "outputs": [
        {
          "name": "",
          "type": "bool"
        }
      ],
      "payable": false,
      "stateMutability": "view",
      "type": "function"
    },
    {
      "constant": true,
      "inputs": [],
      "name": "CONTRIBUTE_ROLE",
      "outputs": [
        {
          "name": "",
          "type": "bytes32"
        }
      ],
      "payable": false,
      "stateMutability": "view",
      "type": "function"
    },
    {
      "constant": true,
      "inputs": [],
      "name": "getEVMScriptRegistry",
      "outputs": [
        {
          "name": "",
          "type": "address"
        }
      ],
      "payable": false,
      "stateMutability": "view",
      "type": "function"
    },
    {
      "constant": false,
      "inputs": [
        {
          "name": "_controller",
          "type": "address"
        },
        {
          "name": "_tokenManager",
          "type": "address"
        },
        {
          "name": "_reserve",
          "type": "address"
        },
        {
          "name": "_beneficiary",
          "type": "address"
        },
        {
          "name": "_contributionToken",
          "type": "address"
        },
        {
          "name": "_goal",
          "type": "uint256"
        },
        {
          "name": "_period",
          "type": "uint64"
        },
        {
          "name": "_exchangeRate",
          "type": "uint256"
        },
        {
          "name": "_vestingCliffPeriod",
          "type": "uint64"
        },
        {
          "name": "_vestingCompletePeriod",
          "type": "uint64"
        },
        {
          "name": "_supplyOfferedPct",
          "type": "uint256"
        },
        {
          "name": "_fundingForBeneficiaryPct",
          "type": "uint256"
        },
        {
          "name": "_openDate",
          "type": "uint64"
        }
      ],
      "name": "initialize",
      "outputs": [],
      "payable": false,
      "stateMutability": "nonpayable",
      "type": "function"
    },
    {
      "constant": true,
      "inputs": [],
      "name": "state",
      "outputs": [
        {
          "name": "",
          "type": "uint8"
        }
      ],
      "payable": false,
      "stateMutability": "view",
      "type": "function"
    },
    {
      "constant": true,
      "inputs": [],
      "name": "isClosed",
      "outputs": [
        {
          "name": "",
          "type": "bool"
        }
      ],
      "payable": false,
      "stateMutability": "view",
      "type": "function"
    },
    {
      "constant": true,
      "inputs": [],
      "name": "totalRaised",
      "outputs": [
        {
          "name": "",
          "type": "uint256"
        }
      ],
      "payable": false,
      "stateMutability": "view",
      "type": "function"
    },
    {
      "constant": true,
      "inputs": [],
      "name": "reserve",
      "outputs": [
        {
          "name": "",
          "type": "address"
        }
      ],
      "payable": false,
      "stateMutability": "view",
      "type": "function"
    },
    {
      "constant": true,
      "inputs": [],
      "name": "kernel",
      "outputs": [
        {
          "name": "",
          "type": "address"
        }
      ],
      "payable": false,
      "stateMutability": "view",
      "type": "function"
    },
    {
      "constant": true,
      "inputs": [],
      "name": "vestingCliffDate",
      "outputs": [
        {
          "name": "",
          "type": "uint64"
        }
      ],
      "payable": false,
      "stateMutability": "view",
      "type": "function"
    },
    {
      "constant": true,
      "inputs": [],
      "name": "isPetrified",
      "outputs": [
        {
          "name": "",
          "type": "bool"
        }
      ],
      "payable": false,
      "stateMutability": "view",
      "type": "function"
    },
    {
      "constant": true,
      "inputs": [],
      "name": "openDate",
      "outputs": [
        {
          "name": "",
          "type": "uint64"
        }
      ],
      "payable": false,
      "stateMutability": "view",
      "type": "function"
    },
    {
      "constant": true,
      "inputs": [],
      "name": "period",
      "outputs": [
        {
          "name": "",
          "type": "uint64"
        }
      ],
      "payable": false,
      "stateMutability": "view",
      "type": "function"
    },
    {
      "constant": true,
      "inputs": [],
      "name": "vestingCompleteDate",
      "outputs": [
        {
          "name": "",
          "type": "uint64"
        }
      ],
      "payable": false,
      "stateMutability": "view",
      "type": "function"
    },
    {
      "constant": true,
      "inputs": [],
      "name": "controller",
      "outputs": [
        {
          "name": "",
          "type": "address"
        }
      ],
      "payable": false,
      "stateMutability": "view",
      "type": "function"
    },
    {
      "constant": true,
      "inputs": [],
      "name": "token",
      "outputs": [
        {
          "name": "",
          "type": "address"
        }
      ],
      "payable": false,
      "stateMutability": "view",
      "type": "function"
    },
    {
      "constant": false,
      "inputs": [],
      "name": "open",
      "outputs": [],
      "payable": false,
      "stateMutability": "nonpayable",
      "type": "function"
    },
    {
      "anonymous": false,
      "inputs": [
        {
          "indexed": false,
          "name": "date",
          "type": "uint64"
        }
      ],
      "name": "SetOpenDate",
      "type": "event"
    },
    {
      "anonymous": false,
      "inputs": [],
      "name": "Close",
      "type": "event"
    },
    {
      "anonymous": false,
      "inputs": [
        {
          "indexed": true,
          "name": "contributor",
          "type": "address"
        },
        {
          "indexed": false,
          "name": "value",
          "type": "uint256"
        },
        {
          "indexed": false,
          "name": "amount",
          "type": "uint256"
        },
        {
          "indexed": false,
          "name": "vestedPurchaseId",
          "type": "uint256"
        }
      ],
      "name": "Contribute",
      "type": "event"
    },
    {
      "anonymous": false,
      "inputs": [
        {
          "indexed": true,
          "name": "contributor",
          "type": "address"
        },
        {
          "indexed": false,
          "name": "value",
          "type": "uint256"
        },
        {
          "indexed": false,
          "name": "amount",
          "type": "uint256"
        },
        {
          "indexed": false,
          "name": "vestedPurchaseId",
          "type": "uint256"
        }
      ],
      "name": "Refund",
      "type": "event"
    },
    {
      "anonymous": false,
      "inputs": [
        {
          "indexed": true,
          "name": "executor",
          "type": "address"
        },
        {
          "indexed": false,
          "name": "script",
          "type": "bytes"
        },
        {
          "indexed": false,
          "name": "input",
          "type": "bytes"
        },
        {
          "indexed": false,
          "name": "returnData",
          "type": "bytes"
        }
      ],
      "name": "ScriptResult",
      "type": "event"
    },
    {
      "anonymous": false,
      "inputs": [
        {
          "indexed": true,
          "name": "vault",
          "type": "address"
        },
        {
          "indexed": true,
          "name": "token",
          "type": "address"
        },
        {
          "indexed": false,
          "name": "amount",
          "type": "uint256"
        }
      ],
      "name": "RecoverToVault",
      "type": "event"
    }
  ],
  "transactionHash": "0xdfcb34e8b8b6168bc961b029a0a36dddb5fab07bd280463714f1e6bc9d9677b3",
  "args": [],
  "solcInputHash": "586a903477ec1503baf8b5fdd5add05e",
  "bytecode": "0x6080604052620000176401000000006200001d810204565b6200023b565b6200003064010000000062000125810204565b60408051808201909152601881527f494e49545f414c52454144595f494e495449414c495a45440000000000000000602082015290156200010c576040517f08c379a00000000000000000000000000000000000000000000000000000000081526004018080602001828103825283818151815260200191508051906020019080838360005b83811015620000d0578181015183820152602001620000b6565b50505050905090810190601f168015620000fe5780820380516001836020036101000a031916815260200191505b509250505060405180910390fd5b506200012360001964010000000062000154810204565b565b60006200014f600080516020620040e38339815191526401000000006200257e6200023382021704565b905090565b6200016764010000000062000125810204565b60408051808201909152601881527f494e49545f414c52454144595f494e495449414c495a454400000000000000006020820152901562000206576040517f08c379a000000000000000000000000000000000000000000000000000000000815260040180806020018281038252838181518152602001915080519060200190808383600083811015620000d0578181015183820152602001620000b6565b5062000230600080516020620040e383398151915282640100000000620025826200023782021704565b50565b5490565b9055565b613e98806200024b6000396000f3006080604052600436106101ec5763ffffffff7c0100000000000000000000000000000000000000000000000000000000600035041662fb40c281146101f15780630803fac0146102235780630d720bbc1461024c5780631e4e5b611461027357806325eeb6c6146102885780632914b9bd1461029d5780632a709b141461031257806332f0a3b51461032757806338af3eed1461033c5780633ba0b9a9146103515780633c2ab1ba14610366578063401938831461037b578063410085df1461039057806343d726d6146103b65780634bedf9a8146103cb578063550b521c146103e05780636a928e8f146104045780637e7db6e11461041957806380afdea81461043a5780638418cd991461044f5780638b3dd7491461046657806396330f461461047b5780639d4941d814610493578063a1658fad146104b4578063a2b96b6f1461051b578063a479e50814610530578063b472fc8114610545578063c19d93fb146105b1578063c2b6b58c146105ea578063c5c4744c146105ff578063cd3293de14610614578063d4aae0c414610629578063daba92f91461063e578063de4796ed14610653578063ec8cb28114610668578063ef78d4fd1461067d578063eff1e3b214610692578063f77c4791146106a7578063fc0c546a146106bc578063fcfff16f146106d1575b600080fd5b3480156101fd57600080fd5b506102066106e6565b6040805167ffffffffffffffff9092168252519081900360200190f35b34801561022f57600080fd5b50610238610702565b604080519115158252519081900360200190f35b34801561025857600080fd5b5061026161072b565b60408051918252519081900360200190f35b34801561027f57600080fd5b50610261610732565b34801561029457600080fd5b50610206610738565b3480156102a957600080fd5b506040805160206004803580820135601f81018490048402850184019095528484526102f69436949293602493928401919081908401838280828437509497506107489650505050505050565b60408051600160a060020a039092168252519081900360200190f35b34801561031e57600080fd5b506102f6610847565b34801561033357600080fd5b506102f6610856565b34801561034857600080fd5b506102f66108e8565b34801561035d57600080fd5b506102616108f7565b34801561037257600080fd5b506102616108fd565b34801561038757600080fd5b50610261610903565b34801561039c57600080fd5b506103b4600160a060020a0360043516602435610909565b005b3480156103c257600080fd5b506103b4610b58565b3480156103d757600080fd5b506102f6610d67565b3480156103ec57600080fd5b50610261600160a060020a0360043516602435610e08565b34801561041057600080fd5b50610261610e25565b34801561042557600080fd5b50610238600160a060020a0360043516610e49565b34801561044657600080fd5b50610261610e4f565b6103b4600160a060020a0360043516602435610e7f565b34801561047257600080fd5b50610261611275565b34801561048757600080fd5b506102616004356112a0565b34801561049f57600080fd5b506103b4600160a060020a036004351661135f565b3480156104c057600080fd5b506040805160206004604435818101358381028086018501909652808552610238958335600160a060020a03169560248035963696956064959394920192918291850190849080828437509497506115ee9650505050505050565b34801561052757600080fd5b50610261611757565b34801561053c57600080fd5b506102f661177b565b34801561055157600080fd5b506103b4600160a060020a036004358116906024358116906044358116906064358116906084351660a43567ffffffffffffffff60c43581169060e435906101043581169061012435811690610144359061016435906101843516611830565b3480156105bd57600080fd5b506105c661215e565b604051808260048111156105d657fe5b60ff16815260200191505060405180910390f35b3480156105f657600080fd5b50610238612292565b34801561060b57600080fd5b506102616122a7565b34801561062057600080fd5b506102f66122ad565b34801561063557600080fd5b506102f66122bc565b34801561064a57600080fd5b506102066122e7565b34801561065f57600080fd5b50610238612304565b34801561067457600080fd5b50610206612317565b34801561068957600080fd5b50610206612327565b34801561069e57600080fd5b50610206612337565b3480156106b357600080fd5b506102f661235c565b3480156106c857600080fd5b506102f661236b565b3480156106dd57600080fd5b506103b461237a565b60095468010000000000000000900467ffffffffffffffff1681565b60008061070d611275565b9050801580159061072557508061072261257a565b10155b91505090565b620f424081565b600a5481565b60095467ffffffffffffffff1681565b600061075261177b565b600160a060020a03166304bf2a7f836040518263ffffffff167c01000000000000000000000000000000000000000000000000000000000281526004018080602001828103825283818151815260200191508051906020019080838360005b838110156107c95781810151838201526020016107b1565b50505050905090810190601f1680156107f65780820380516001836020036101000a031916815260200191505b5092505050602060405180830381600087803b15801561081557600080fd5b505af1158015610829573d6000803e3d6000fd5b505050506040513d602081101561083f57600080fd5b505192915050565b600154600160a060020a031681565b60006108606122bc565b600160a060020a03166332f0a3b56040518163ffffffff167c0100000000000000000000000000000000000000000000000000000000028152600401602060405180830381600087803b1580156108b657600080fd5b505af11580156108ca573d6000803e3d6000fd5b505050506040513d60208110156108e057600080fd5b505190505b90565b600454600160a060020a031681565b60085481565b600b5481565b60065481565b610920600080516020613e4d83398151915261257e565b60408051808201909152601981527f5245454e5452414e43595f5245454e5452414e545f43414c4c00000000000000602082015290156109e15760405160e560020a62461bcd0281526004018080602001828103825283818151815260200191508051906020019080838360005b838110156109a657818101518382015260200161098e565b50505050905090810190601f1680156109d35780820380516001836020036101000a031916815260200191505b509250505060405180910390fd5b50610a01600080516020613e4d833981519152600163ffffffff61258216565b610a09610702565b60408051808201909152601481527f494e49545f4e4f545f494e495449414c495a45440000000000000000000000006020820152901515610a8f5760405160e560020a62461bcd028152600401808060200182810382528381815181526020019150805190602001908083836000838110156109a657818101518382015260200161098e565b506002610a9a61215e565b6004811115610aa557fe5b60408051808201909152601581527f50524553414c455f494e56414c49445f5354415445000000000000000000000060208201529114610b2a5760405160e560020a62461bcd028152600401808060200182810382528381815181526020019150805190602001908083836000838110156109a657818101518382015260200161098e565b50610b358282612586565b610b54600080516020613e4d833981519152600063ffffffff61258216565b5050565b610b6f600080516020613e4d83398151915261257e565b60408051808201909152601981527f5245454e5452414e43595f5245454e5452414e545f43414c4c0000000000000060208201529015610bf45760405160e560020a62461bcd028152600401808060200182810382528381815181526020019150805190602001908083836000838110156109a657818101518382015260200161098e565b50610c14600080516020613e4d833981519152600163ffffffff61258216565b610c1c610702565b60408051808201909152601481527f494e49545f4e4f545f494e495449414c495a45440000000000000000000000006020820152901515610ca25760405160e560020a62461bcd028152600401808060200182810382528381815181526020019150805190602001908083836000838110156109a657818101518382015260200161098e565b506003610cad61215e565b6004811115610cb857fe5b60408051808201909152601581527f50524553414c455f494e56414c49445f5354415445000000000000000000000060208201529114610d3d5760405160e560020a62461bcd028152600401808060200182810382528381815181526020019150805190602001908083836000838110156109a657818101518382015260200161098e565b50610d46612863565b610d65600080516020613e4d833981519152600063ffffffff61258216565b565b6000610d71610702565b60408051808201909152601481527f494e49545f4e4f545f494e495449414c495a45440000000000000000000000006020820152901515610df75760405160e560020a62461bcd028152600401808060200182810382528381815181526020019150805190602001908083836000838110156109a657818101518382015260200161098e565b5050600554600160a060020a031690565b600e60209081526000928352604080842090915290825290205481565b7fefa06053e2ca99a43c97c4a4f3d8a394ee3323a8ff237e625fba09fe30ceb0a481565b50600190565b6000610e7a7fd625496217aa6a3453eecb9c3489dc5a53e6c67b444329ea2b2cbc9ff547639b61257e565b905090565b610e96600080516020613e4d83398151915261257e565b60408051808201909152601981527f5245454e5452414e43595f5245454e5452414e545f43414c4c0000000000000060208201529015610f1b5760405160e560020a62461bcd028152600401808060200182810382528381815181526020019150805190602001908083836000838110156109a657818101518382015260200161098e565b50610f3b600080516020613e4d833981519152600163ffffffff61258216565b604080516000808252602082019092527f9ccaca4edf2127f20c425fdd86af1ba178b9e5bee280cd70d88ac5f6874c4f0791610f7d9133918491905b506115ee565b60408051808201909152600f81527f4150505f415554485f4641494c4544000000000000000000000000000000000060208201529015156110035760405160e560020a62461bcd028152600401808060200182810382528381815181526020019150805190602001908083836000838110156109a657818101518382015260200161098e565b50600161100e61215e565b600481111561101957fe5b60408051808201909152601581527f50524553414c455f494e56414c49445f535441544500000000000000000000006020820152911461109e5760405160e560020a62461bcd028152600401808060200182810382528381815181526020019150805190602001908083836000838110156109a657818101518382015260200161098e565b506040805180820190915260208082527f50524553414c455f494e56414c49445f434f4e545249425554455f56414c5545908201528215156111255760405160e560020a62461bcd028152600401808060200182810382528381815181526020019150805190602001908083836000838110156109a657818101518382015260200161098e565b50600554600160a060020a031615156111c4576040805180820190915260208082527f50524553414c455f494e56414c49445f434f4e545249425554455f56414c5545908201523483146111be5760405160e560020a62461bcd028152600401808060200182810382528381815181526020019150805190602001908083836000838110156109a657818101518382015260200161098e565b5061124b565b6040805180820190915260208082527f50524553414c455f494e56414c49445f434f4e545249425554455f56414c55459082015234156112495760405160e560020a62461bcd028152600401808060200182810382528381815181526020019150805190602001908083836000838110156109a657818101518382015260200161098e565b505b6112558383612c6f565b50610b54600080516020613e4d833981519152600063ffffffff61258216565b6000610e7a7febb05b386a8d34882b8711d156f463690983dc47815980fb82aeeff1aa43579e61257e565b60006112aa610702565b60408051808201909152601481527f494e49545f4e4f545f494e495449414c495a454400000000000000000000000060208201529015156113305760405160e560020a62461bcd028152600401808060200182810382528381815181526020019150805190602001908083836000838110156109a657818101518382015260200161098e565b50611359620f424061134d6008548561316e90919063ffffffff16565b9063ffffffff61322516565b92915050565b600080600061136d84610e49565b60408051808201909152601281527f5245434f5645525f444953414c4c4f574544000000000000000000000000000060208201529015156113f35760405160e560020a62461bcd028152600401808060200182810382528381815181526020019150805190602001908083836000838110156109a657818101518382015260200161098e565b506113fc610856565b9250611407836132c5565b60408051808201909152601a81527f5245434f5645525f5641554c545f4e4f545f434f4e5452414354000000000000602082015290151561148d5760405160e560020a62461bcd028152600401808060200182810382528381815181526020019150805190602001908083836000838110156109a657818101518382015260200161098e565b50600160a060020a03841615156114de5760405130319250600160a060020a0384169083156108fc029084906000818181858888f193505050501580156114d8573d6000803e3d6000fd5b5061159d565b50826114f9600160a060020a0382163063ffffffff6132f216565b9150611515600160a060020a038216848463ffffffff61340716565b60408051808201909152601d81527f5245434f5645525f544f4b454e5f5452414e534645525f4641494c4544000000602082015290151561159b5760405160e560020a62461bcd028152600401808060200182810382528381815181526020019150805190602001908083836000838110156109a657818101518382015260200161098e565b505b83600160a060020a031683600160a060020a03167f596caf56044b55fb8c4ca640089bbc2b63cae3e978b851f5745cbb7c5b288e02846040518082815260200191505060405180910390a350505050565b6000806115f9610702565b1515611608576000915061174f565b6116106122bc565b9050600160a060020a038116151561162b576000915061174f565b80600160a060020a031663fdef910686308761164688613492565b6040517c010000000000000000000000000000000000000000000000000000000063ffffffff8716028152600160a060020a03808616600483019081529085166024830152604482018490526080606483019081528351608484015283519192909160a490910190602085019080838360005b838110156116d15781810151838201526020016116b9565b50505050905090810190601f1680156116fe5780820380516001836020036101000a031916815260200191505b5095505050505050602060405180830381600087803b15801561172057600080fd5b505af1158015611734573d6000803e3d6000fd5b505050506040513d602081101561174a57600080fd5b505191505b509392505050565b7f9ccaca4edf2127f20c425fdd86af1ba178b9e5bee280cd70d88ac5f6874c4f0781565b6000806117866122bc565b604080517fbe00bbd80000000000000000000000000000000000000000000000000000000081527fd6f028ca0e8edb4a8c9757ca4fdccab25fa1e0317da1188108f7d2dee14902fb60048201527fddbcfd564f642ab5627cf68b9b7d374fb4f8a36e941a75d89c87998cef03bd6160248201529051600160a060020a03929092169163be00bbd8916044808201926020929091908290030181600087803b15801561081557600080fd5b611838611275565b60408051808201909152601881527f494e49545f414c52454144595f494e495449414c495a45440000000000000000602082015290156118bd5760405160e560020a62461bcd028152600401808060200182810382528381815181526020019150805190602001908083836000838110156109a657818101518382015260200161098e565b506118c78d6132c5565b60408051808201909152601781527f50524553414c455f434f4e54524143545f49535f454f41000000000000000000602082015290151561194d5760405160e560020a62461bcd028152600401808060200182810382528381815181526020019150805190602001908083836000838110156109a657818101518382015260200161098e565b506119578c6132c5565b60408051808201909152601781527f50524553414c455f434f4e54524143545f49535f454f4100000000000000000060208201529015156119dd5760405160e560020a62461bcd028152600401808060200182810382528381815181526020019150805190602001908083836000838110156109a657818101518382015260200161098e565b506119e78b6132c5565b60408051808201909152601781527f50524553414c455f434f4e54524143545f49535f454f410000000000000000006020820152901515611a6d5760405160e560020a62461bcd028152600401808060200182810382528381815181526020019150805190602001908083836000838110156109a657818101518382015260200161098e565b5060408051808201909152601b81527f50524553414c455f494e56414c49445f42454e454649434941525900000000006020820152600160a060020a038b161515611afd5760405160e560020a62461bcd028152600401808060200182810382528381815181526020019150805190602001908083836000838110156109a657818101518382015260200161098e565b50611b07896132c5565b80611b195750600160a060020a038916155b6040805190810160405280602081526020017f50524553414c455f494e56414c49445f434f4e545249425554455f544f4b454e815250901515611ba15760405160e560020a62461bcd028152600401808060200182810382528381815181526020019150805190602001908083836000838110156109a657818101518382015260200161098e565b5060408051808201909152601481527f50524553414c455f494e56414c49445f474f414c000000000000000000000000602082015260008911611c295760405160e560020a62461bcd028152600401808060200182810382528381815181526020019150805190602001908083836000838110156109a657818101518382015260200161098e565b5060408051808201909152601b81527f50524553414c455f494e56414c49445f54494d455f504552494f4400000000006020820152600067ffffffffffffffff891611611cbb5760405160e560020a62461bcd028152600401808060200182810382528381815181526020019150805190602001908083836000838110156109a657818101518382015260200161098e565b5060408051808201909152601d81527f50524553414c455f494e56414c49445f45584348414e47455f52415445000000602082015260008711611d435760405160e560020a62461bcd028152600401808060200182810382528381815181526020019150805190602001908083836000838110156109a657818101518382015260200161098e565b5060408051808201909152601b81527f50524553414c455f494e56414c49445f54494d455f504552494f440000000000602082015267ffffffffffffffff80891690871611611dd75760405160e560020a62461bcd028152600401808060200182810382528381815181526020019150805190602001908083836000838110156109a657818101518382015260200161098e565b5060408051808201909152601b81527f50524553414c455f494e56414c49445f54494d455f504552494f440000000000602082015267ffffffffffffffff80871690861611611e6b5760405160e560020a62461bcd028152600401808060200182810382528381815181526020019150805190602001908083836000838110156109a657818101518382015260200161098e565b50600083118015611e7f5750620f42408311155b60408051808201909152601381527f50524553414c455f494e56414c49445f504354000000000000000000000000006020820152901515611f055760405160e560020a62461bcd028152600401808060200182810382528381815181526020019150805190602001908083836000838110156109a657818101518382015260200161098e565b5060008210158015611f1a5750620f42408211155b60408051808201909152601381527f50524553414c455f494e56414c49445f504354000000000000000000000000006020820152901515611fa05760405160e560020a62461bcd028152600401808060200182810382528381815181526020019150805190602001908083836000838110156109a657818101518382015260200161098e565b50611fa961349c565b8c6000806101000a815481600160a060020a030219169083600160a060020a031602179055508b600160006101000a815481600160a060020a030219169083600160a060020a031602179055508b600160a060020a031663fc0c546a6040518163ffffffff167c0100000000000000000000000000000000000000000000000000000000028152600401602060405180830381600087803b15801561204d57600080fd5b505af1158015612061573d6000803e3d6000fd5b505050506040513d602081101561207757600080fd5b5051600280547fffffffffffffffffffffffff0000000000000000000000000000000000000000908116600160a060020a03938416179091556003805482168e84161790556004805482168d841617905560058054909116918b1691909117905560068890556007805467ffffffffffffffff1990811667ffffffffffffffff8a811691909117909255600888905560098054909116878316176fffffffffffffffff000000000000000019166801000000000000000087841602179055600a849055600b83905581161561214f5761214f81613562565b50505050505050505050505050565b6000612168610702565b60408051808201909152601481527f494e49545f4e4f545f494e495449414c495a454400000000000000000000000060208201529015156121ee5760405160e560020a62461bcd028152600401808060200182810382528381815181526020019150805190602001908083836000838110156109a657818101518382015260200161098e565b50600c5467ffffffffffffffff16158061221e575061220b613665565b600c5467ffffffffffffffff9182169116115b1561222b575060006108e5565b600654600d541061225d57600c5468010000000000000000900460ff1615612255575060046108e5565b5060036108e5565b60075467ffffffffffffffff16612272613677565b67ffffffffffffffff16101561228a575060016108e5565b5060026108e5565b600c5468010000000000000000900460ff1681565b600d5481565b600354600160a060020a031681565b6000610e7a7f4172f0f7d2289153072b0a6ca36959e0cbe2efc3afe50fc81636caa96338137b61257e565b600c546901000000000000000000900467ffffffffffffffff1681565b6000600019612311611275565b14905090565b600c5467ffffffffffffffff1681565b60075467ffffffffffffffff1681565b600c5471010000000000000000000000000000000000900467ffffffffffffffff1681565b600054600160a060020a031681565b600254600160a060020a031681565b604080516000808252602082019092527fefa06053e2ca99a43c97c4a4f3d8a394ee3323a8ff237e625fba09fe30ceb0a4916123ba913391849190610f77565b60408051808201909152600f81527f4150505f415554485f4641494c4544000000000000000000000000000000000060208201529015156124405760405160e560020a62461bcd028152600401808060200182810382528381815181526020019150805190602001908083836000838110156109a657818101518382015260200161098e565b50600061244b61215e565b600481111561245657fe5b60408051808201909152601581527f50524553414c455f494e56414c49445f53544154450000000000000000000000602082015291146124db5760405160e560020a62461bcd028152600401808060200182810382528381815181526020019150805190602001908083836000838110156109a657818101518382015260200161098e565b50600c5460408051808201909152601581527f50524553414c455f494e56414c49445f5354415445000000000000000000000060208201529067ffffffffffffffff161561256e5760405160e560020a62461bcd028152600401808060200182810382528381815181526020019150805190602001908083836000838110156109a657818101518382015260200161098e565b506125776136cb565b50565b4390565b5490565b9055565b600160a060020a0382166000908152600e602090815260408083208484528252808320548151808301909252601982527f50524553414c455f4e4f5448494e475f544f5f524546554e4400000000000000928201929092529091908183116126335760405160e560020a62461bcd028152600401808060200182810382528381815181526020019150805190602001908083836000838110156109a657818101518382015260200161098e565b50600160a060020a038085166000908152600e6020908152604080832087845290915281205560055461266991163086856136db565b600154604080517f3e05a36d000000000000000000000000000000000000000000000000000000008152600160a060020a0387811660048301526024820187905291519190921691633e05a36d9160448083019260a09291908290030181600087803b1580156126d857600080fd5b505af11580156126ec573d6000803e3d6000fd5b505050506040513d60a081101561270257600080fd5b5051600154604080517ffa6799f2000000000000000000000000000000000000000000000000000000008152600160a060020a03888116600483015260248201889052915193945091169163fa6799f29160448082019260009290919082900301818387803b15801561277457600080fd5b505af1158015612788573d6000803e3d6000fd5b5050600154604080517f9dc29fac000000000000000000000000000000000000000000000000000000008152600160a060020a0390921660048301819052602483018690529051909350639dc29fac9250604480830192600092919082900301818387803b1580156127f957600080fd5b505af115801561280d573d6000803e3d6000fd5b505060408051858152602081018590528082018790529051600160a060020a03881693507fb7048c2ad36aadee977bb16b4543a18866044d27a2ca753e1c7dbcfa7d7a696292509081900360600190a250505050565b600c805468ff0000000000000000191668010000000000000000179055600b54600d54600091829182916128a691620f42409161134d919063ffffffff61316e16565b925060008311156128d0576005546004546128d091600160a060020a0390811691309116866136db565b600554600160a060020a03161561297857600554604080517f70a082310000000000000000000000000000000000000000000000000000000081523060048201529051600160a060020a03909216916370a08231916024808201926020929091908290030181600087803b15801561294757600080fd5b505af115801561295b573d6000803e3d6000fd5b505050506040513d602081101561297157600080fd5b505161297b565b30315b60055460035491935061299d91600160a060020a0391821691309116856136db565b600a54612a5e9061134d6129ba620f42408363ffffffff6139a216565b600260009054906101000a9004600160a060020a0316600160a060020a03166318160ddd6040518163ffffffff167c0100000000000000000000000000000000000000000000000000000000028152600401602060405180830381600087803b158015612a2657600080fd5b505af1158015612a3a573d6000803e3d6000fd5b505050506040513d6020811015612a5057600080fd5b50519063ffffffff61316e16565b600154604080517fcc872b66000000000000000000000000000000000000000000000000000000008152600481018490529051929350600160a060020a039091169163cc872b669160248082019260009290919082900301818387803b158015612ac757600080fd5b505af1158015612adb573d6000803e3d6000fd5b505060015460048054600c54604080517f21cb18cd000000000000000000000000000000000000000000000000000000008152600160a060020a03938416948101949094526024840188905267ffffffffffffffff80831660448601526901000000000000000000830481166064860152710100000000000000000000000000000000009092049091166084840152600060a4840181905290519190931694506321cb18cd935060c48083019360209383900390910190829087803b158015612ba357600080fd5b505af1158015612bb7573d6000803e3d6000fd5b505050506040513d6020811015612bcd57600080fd5b505060008054604080517fc9567bf90000000000000000000000000000000000000000000000000000000081529051600160a060020a039092169263c9567bf99260048084019382900301818387803b158015612c2957600080fd5b505af1158015612c3d573d6000803e3d6000fd5b50506040517fc35789ccff76271dc0efa6bfde2f4d4a32cd48dd86278f75f8648cb068c86e3b925060009150a1505050565b6000806000600654612c8c85600d54613a3690919063ffffffff16565b11612c975783612cac565b600d54600654612cac9163ffffffff6139a216565b600554909350600160a060020a0316158015612cc757508284115b15612d0a57336108fc612ce0868663ffffffff6139a216565b6040518115909202916000818181858888f19350505050158015612d08573d6000803e3d6000fd5b505b600554600160a060020a031615612f7557600554604080517f70a08231000000000000000000000000000000000000000000000000000000008152600160a060020a0388811660048301529151869392909216916370a08231916024808201926020929091908290030181600087803b158015612d8657600080fd5b505af1158015612d9a573d6000803e3d6000fd5b505050506040513d6020811015612db057600080fd5b505160408051808201909152601c81527f50524553414c455f494e53554646494349454e545f42414c414e4345000000006020820152911115612e385760405160e560020a62461bcd028152600401808060200182810382528381815181526020019150805190602001908083836000838110156109a657818101518382015260200161098e565b50600554604080517fdd62ed3e000000000000000000000000000000000000000000000000000000008152600160a060020a03888116600483015230602483015291518693929092169163dd62ed3e916044808201926020929091908290030181600087803b158015612eaa57600080fd5b505af1158015612ebe573d6000803e3d6000fd5b505050506040513d6020811015612ed457600080fd5b505160408051808201909152601e81527f50524553414c455f494e53554646494349454e545f414c4c4f57414e434500006020820152911115612f5c5760405160e560020a62461bcd028152600401808060200182810382528381815181526020019150805190602001908083836000838110156109a657818101518382015260200161098e565b50600554612f7590600160a060020a03168630866136db565b612f7e836112a0565b600154604080517fcc872b66000000000000000000000000000000000000000000000000000000008152600481018490529051929450600160a060020a039091169163cc872b669160248082019260009290919082900301818387803b158015612fe757600080fd5b505af1158015612ffb573d6000803e3d6000fd5b505060018054600c54604080517f21cb18cd000000000000000000000000000000000000000000000000000000008152600160a060020a038c81166004830152602482018a905267ffffffffffffffff8085166044840152690100000000000000000085048116606484015271010000000000000000000000000000000000909404909316608482015260a481019490945251911693506321cb18cd925060c48083019260209291908290030181600087803b1580156130ba57600080fd5b505af11580156130ce573d6000803e3d6000fd5b505050506040513d60208110156130e457600080fd5b5051600d549091506130fc908463ffffffff613a3616565b600d55600160a060020a0385166000818152600e60209081526040808320858452825291829020869055815186815290810185905280820184905290517f37e36ebc6d4ece9d361f20138c5dee2a19f8029f2236a30715e971bcf0f0b7349181900360600190a25050505050565b5490565b600080831515613181576000915061321e565b5082820282848281151561319157fe5b60408051808201909152601181527f4d4154485f4d554c5f4f564552464c4f57000000000000000000000000000000602082015292919004146132195760405160e560020a62461bcd028152600401808060200182810382528381815181526020019150805190602001908083836000838110156109a657818101518382015260200161098e565b508091505b5092915050565b60408051808201909152600d81527f4d4154485f4449565f5a45524f00000000000000000000000000000000000000602082015260009081908184116132b05760405160e560020a62461bcd028152600401808060200182810382528381815181526020019150805190602001908083836000838110156109a657818101518382015260200161098e565b5082848115156132bc57fe5b04949350505050565b600080600160a060020a03831615156132e157600091506132ec565b823b90506000811191505b50919050565b60408051600160a060020a0383166024808301919091528251808303909101815260449091019091526020810180517bffffffffffffffffffffffffffffffffffffffffffffffffffffffff167f70a082310000000000000000000000000000000000000000000000000000000017905260009081806133728684613ac4565b60408051808201909152601c81527f534146455f4552435f32305f42414c414e43455f524556455254454400000000602082015291935091508215156133fd5760405160e560020a62461bcd028152600401808060200182810382528381815181526020019150805190602001908083836000838110156109a657818101518382015260200161098e565b5095945050505050565b60408051600160a060020a038416602482015260448082018490528251808303909101815260649091019091526020810180517bffffffffffffffffffffffffffffffffffffffffffffffffffffffff167fa9059cbb000000000000000000000000000000000000000000000000000000001790526000906134898582613af5565b95945050505050565b8051602002815290565b6134a4611275565b60408051808201909152601881527f494e49545f414c52454144595f494e495449414c495a45440000000000000000602082015290156135295760405160e560020a62461bcd028152600401808060200182810382528381815181526020019150805190602001908083836000838110156109a657818101518382015260200161098e565b50610d6561353561257a565b7febb05b386a8d34882b8711d156f463690983dc47815980fb82aeeff1aa43579e9063ffffffff61258216565b61356a613665565b60408051808201909152601b81527f50524553414c455f494e56414c49445f54494d455f504552494f44000000000060208201529067ffffffffffffffff90811690831610156135ff5760405160e560020a62461bcd028152600401808060200182810382528381815181526020019150805190602001908083836000838110156109a657818101518382015260200161098e565b50600c805467ffffffffffffffff191667ffffffffffffffff8316179055613625613b47565b6040805167ffffffffffffffff8316815290517fab2aeaceefdbd207caa02bf58306335f7c37fd3b434a6cc547733be5e33a86779181900360200190a150565b6000610e7a613672613be7565b613beb565b600c5460009067ffffffffffffffff161515613695575060006108e5565b600c546136c49067ffffffffffffffff166136ae613665565b67ffffffffffffffff169063ffffffff613c8416565b90506108e5565b610d656136d6613665565b613562565b600160a060020a03841615156138485760408051808201909152601f81527f50524553414c455f544f4b454e5f5452414e534645525f5245564552544544006020820152600160a060020a038416301461377a5760405160e560020a62461bcd028152600401808060200182810382528381815181526020019150805190602001908083836000838110156109a657818101518382015260200161098e565b5060408051808201909152601f81527f50524553414c455f544f4b454e5f5452414e534645525f5245564552544544006020820152600160a060020a03831630141561380b5760405160e560020a62461bcd028152600401808060200182810382528381815181526020019150805190602001908083836000838110156109a657818101518382015260200161098e565b50604051600160a060020a0383169082156108fc029083906000818181858888f19350505050158015613842573d6000803e3d6000fd5b5061399c565b600160a060020a0383163014156138f957613873600160a060020a038516838363ffffffff61340716565b60408051808201909152601f81527f50524553414c455f544f4b454e5f5452414e534645525f52455645525445440060208201529015156138425760405160e560020a62461bcd028152600401808060200182810382528381815181526020019150805190602001908083836000838110156109a657818101518382015260200161098e565b613914600160a060020a03851684848463ffffffff613d1d16565b60408051808201909152601f81527f50524553414c455f544f4b454e5f5452414e534645525f524556455254454400602082015290151561399a5760405160e560020a62461bcd028152600401808060200182810382528381815181526020019150805190602001908083836000838110156109a657818101518382015260200161098e565b505b50505050565b60408051808201909152601281527f4d4154485f5355425f554e444552464c4f5700000000000000000000000000006020820152600090819084841115613a2e5760405160e560020a62461bcd028152600401808060200182810382528381815181526020019150805190602001908083836000838110156109a657818101518382015260200161098e565b505050900390565b60408051808201909152601181527f4d4154485f4144445f4f564552464c4f57000000000000000000000000000000602082015260009083830190848210156132195760405160e560020a62461bcd028152600401808060200182810382528381815181526020019150805190602001908083836000838110156109a657818101518382015260200161098e565b6000806000806040516020818751602089018a5afa92506000831115613ae957805191505b50909590945092505050565b6000806040516020818551602087016000895af16000811115613b39573d8015613b265760208114613b2f57613b37565b60019350613b37565b600183511493505b505b5090949350505050565b9055565b600954600c54613b6a9167ffffffffffffffff918216911663ffffffff613db116565b600c805470ffffffffffffffff0000000000000000001916690100000000000000000067ffffffffffffffff938416021790819055600954613bbd92918216916801000000000000000090910416613db1565b600c60116101000a81548167ffffffffffffffff021916908367ffffffffffffffff160217905550565b4290565b60408051808201909152601581527f55494e5436345f4e554d4245525f544f4f5f4249470000000000000000000000602082015260009067ffffffffffffffff831115613c7d5760405160e560020a62461bcd028152600401808060200182810382528381815181526020019150805190602001908083836000838110156109a657818101518382015260200161098e565b5090919050565b60408051808201909152601481527f4d41544836345f5355425f554e444552464c4f570000000000000000000000006020820152600090819067ffffffffffffffff8086169085161115613a2e5760405160e560020a62461bcd028152600401808060200182810382528381815181526020019150805190602001908083836000838110156109a657818101518382015260200161098e565b60408051600160a060020a0385811660248301528416604482015260648082018490528251808303909101815260849091019091526020810180517bffffffffffffffffffffffffffffffffffffffffffffffffffffffff167f23b872dd00000000000000000000000000000000000000000000000000000000179052600090613da78682613af5565b9695505050505050565b60408051808201909152601381527f4d41544836345f4144445f4f564552464c4f570000000000000000000000000060208201526000908383019067ffffffffffffffff80861690831610156132195760405160e560020a62461bcd028152600401808060200182810382528381815181526020019150805190602001908083836000838110156109a657818101518382015260200161098e5600e855346402235fdd185c890e68d2c4ecad599b88587635ee285bce2fda58dacba165627a7a7230582072bf6c574900bcd7ec326b6296d2f0b71d7b0509b1943ac5b37298f853623f260029ebb05b386a8d34882b8711d156f463690983dc47815980fb82aeeff1aa43579e",
  "devdoc": {
    "methods": {
      "allowRecoverability(address)": {
        "details": "By default deriving from AragonApp makes it recoverable",
        "params": {
          "token": "Token address that would be recovered"
        },
        "return": "bool whether the app allows the recovery"
      },
      "canPerform(address,bytes32,uint256[])": {
        "details": "Check whether an action can be performed by a sender for a particular role on this app",
        "params": {
          "_params": "Permission params for the role",
          "_role": "Role on this app",
          "_sender": "Sender of the call"
        },
        "return": "Boolean indicating whether the sender has the permissions to perform the action.        Always returns false if the app hasn't been initialized yet."
      },
      "contribute(address,uint256)": {
        "params": {
          "_contributor": "The address of the contributor",
          "_value": "The amount of contribution token to be spent"
        }
      },
      "contributionToTokens(uint256)": {
        "params": {
          "_value": "The amount of contribution tokens to be used in that computation"
        }
      },
      "getInitializationBlock()": {
        "return": "Block number in which the contract was initialized"
      },
      "getRecoveryVault()": {
        "details": "Get the recovery vault for the app",
        "return": "Recovery vault address for the app"
      },
      "hasInitialized()": {
        "return": "Whether the contract has been initialized by the time of the current block"
      },
      "initialize(address,address,address,address,address,uint256,uint64,uint256,uint64,uint64,uint256,uint256,uint64)": {
        "params": {
          "_beneficiary": "The address of the beneficiary [to whom a percentage of the raised funds is be to be sent]",
          "_contributionToken": "The address of the token to be used to contribute",
          "_controller": "The address of the controller contract",
          "_exchangeRate": "The exchangeRate [= 1/price] at which [bonded] tokens are to be purchased for that presale [in PPM]",
          "_fundingForBeneficiaryPct": "The percentage of the raised contribution tokens to be sent to the beneficiary [instead of the fundraising reserve] when that presale is closed [in PPM]",
          "_goal": "The goal to be reached by the end of that presale [in contribution token wei]",
          "_openDate": "The date upon which that presale is to be open [ignored if 0]",
          "_period": "The period within which to accept contribution for that presale",
          "_reserve": "The address of the reserve [pool] contract",
          "_supplyOfferedPct": "The percentage of the initial supply of [bonded] tokens to be offered during that presale [in PPM]",
          "_tokenManager": "The address of the [bonded] token manager contract",
          "_vestingCliffPeriod": "The period during which purchased [bonded] tokens are to be cliffed",
          "_vestingCompletePeriod": "The complete period during which purchased [bonded] tokens are to be vested"
        }
      },
      "refund(address,uint256)": {
        "params": {
          "_contributor": "The address of the contributor whose presale contribution is to be refunded",
          "_vestedPurchaseId": "The id of the contribution to be refunded"
        }
      },
      "transferToVault(address)": {
        "params": {
          "_token": "Token balance to be sent to recovery vault."
        }
      }
    }
  },
  "userdoc": {
    "methods": {
      "close()": {
        "notice": "Close presale and open trading"
      },
      "contribute(address,uint256)": {
        "notice": "Contribute to the presale up to `@tokenAmount(self.contributionToken(): address, _value)`"
      },
      "contributionToTokens(uint256)": {
        "notice": "Computes the amount of [bonded] tokens that would be purchased for `@tokenAmount(self.contributionToken(): address, _value)`"
      },
      "initialize(address,address,address,address,address,uint256,uint64,uint256,uint64,uint64,uint256,uint256,uint64)": {
        "notice": "Initialize presale"
      },
      "open()": {
        "notice": "Open presale [enabling users to contribute]"
      },
      "refund(address,uint256)": {
        "notice": "Refund `_contributor`'s presale contribution #`_vestedPurchaseId`"
      },
      "state()": {
        "notice": "Returns the current state of that presale"
      },
      "transferToVault(address)": {
        "notice": "Send funds to recovery Vault. This contract should never receive funds,        but in case it does, this function allows one to recover them."
      }
    }
  }
}